:100000000C9462000C948A000C948A000C948A0070
:100010000C948A000C948A000C948A000C948A0038
:100020000C948A000C948A000C948A000C948A0028
:100030000C948A000C948A000C948A000C948A0018
:100040000C94BF020C948A000C942F030C940903A7
:100050000C948A000C948A000C948A000C948A00F8
:100060000C948A000C948A000000000024002700F1
:100070002A0000000000250028002B0000000000DE
:1000800023002600290004040404040404040202DA
:100090000202020203030303030301020408102007
:1000A0004080010204081020010204081020000012
:1000B0000008000201000003040700000000000027
:1000C00000001F0511241FBECFEFD8E0DEBFCDBF5B
:1000D00011E0A0E0B1E0ECEEFAE002C005900D9274
:1000E000AE3AB107D9F722E0AEEAB1E001C01D9205
:1000F000A636B207E1F710E0C2E6D0E004C02197CF
:10010000FE010E946E05C136D107C9F70E94610346
:100110000C9474050C940000833081F028F4813035
:1001200099F08230A9F008958730A9F08830C9F09D
:100130008430B1F4809180008F7D03C08091800075
:100140008F7780938000089584B58F7784BD08955C
:1001500084B58F7DFBCF8091B0008F778093B00006
:1001600008958091B0008F7DF9CFCF93DF93282F32
:1001700030E0F901E255FF4F8491F901E656FF4F57
:10018000D491F901EA57FF4FC491CC23A1F081111A
:100190000E948C00EC2FF0E0EE0FFF1FE458FF4FA1
:1001A000A591B491EC91ED2381E090E009F480E019
:1001B000DF91CF91089580E090E0FACF1F93CF9325
:1001C000DF93282F30E0F901E255FF4F8491F901C8
:1001D000E656FF4FD491F901EA57FF4FC491CC2363
:1001E000A9F0162F81110E948C00EC2FF0E0EE0F89
:1001F000FF1FEE58FF4FA591B4918FB7F894EC9183
:10020000111108C0D095DE23DC938FBFDF91CF9111
:100210001F910895DE2BF8CFCF93DF9390E0FC0180
:10022000E656FF4F24918A579F4FFC018491882303
:10023000C9F090E0880F991FFC01E859FF4FA59184
:10024000B491FC01EE58FF4FC591D49161110DC0DE
:100250009FB7F8948C91209582238C9388812823D2
:1002600028839FBFDF91CF910895623051F49FB7EB
:10027000F8943C91822F809583238C93E8812E2BD8
:10028000EFCF8FB7F894EC912E2B2C938FBFEACF42
:100290003FB7F8948091C5019091C601A091C70124
:1002A000B091C80126B5A89B05C02F3F19F0019653
:1002B000A11DB11D3FBFBA2FA92F982F8827BC01C0
:1002C000CD01620F711D811D911D42E0660F771FE8
:1002D000881F991F4A95D1F70895AF92BF92CF9288
:1002E000DF92EF92FF920F931F93CF93DF936C01F6
:1002F0007B018B01040F151FEB015E01AE18BF08D7
:10030000C017D10759F06991D601ED91FC91019088
:10031000F081E02DC6010995892B79F7C501DF91A0
:10032000CF911F910F91FF90EF90DF90CF90BF90F2
:10033000AF900895FC01538D448D252F30E0842F1C
:1003400090E0821B930B541710F0CF9608950197FD
:100350000895FC01918D828D981761F0A28DAE0FEA
:10036000BF2FB11D5D968C91928D9F5F9F73928F71
:1003700090E008958FEF9FEF0895FC01918D828D9D
:10038000981731F0828DE80FF11D858D90E008956A
:100390008FEF9FEF0895FC01918D228D892F90E0C2
:1003A000805C9F4F821B91098F739927089589EC78
:1003B00091E00E94CB0121E0892B09F420E0822FFB
:1003C0000895CF93DF93C1E0D0E089EC91E00E94E3
:1003D000CB01892B41F189EC91E00E94A901E82F22
:1003E000883679F4D093AF01C093AE018FEC8E0FB5
:1003F000843070F4EE0FFF0BE256FF4F1182108233
:10040000E4CF8C3699F71092AF011092AE01EECF87
:100410008FE88E0F8430C8F6EE0FFF0BE25EFF4FC1
:10042000D183C083D2CFDF91CF9108950E94D701AD
:1004300081110C94E1010895FC01A48DA80FB92F3E
:10044000B11DA35ABF4F2C91848D90E001968F73FC
:100450009927848FA689B7892C93A089B1898C911B
:10046000837080648C93938D848D981306C002886A
:10047000F389E02D80818F7D80830895EF92FF9234
:100480000F931F93CF93DF93EC0181E0888F9B8DB7
:100490008C8D98131AC0E889F989808185FF15C071
:1004A0009FB7F894EE89FF896083E889F989808194
:1004B0008370806480839FBF81E090E0DF91CF9163
:1004C0001F910F91FF90EF900895F62E0B8D10E085
:1004D0000F5F1F4F0F731127E02E8C8D8E110CC0F4
:1004E0000FB607FCFACFE889F989808185FFF5CF3F
:1004F000CE010E941C02F1CFEB8DEC0FFD2FF11D00
:10050000E35AFF4FF0829FB7F8940B8FEA89FB897B
:1005100080818062CFCFCF93DF93EC01888D8823D9
:10052000B9F0AA89BB89E889F9898C9185FD03C056
:10053000808186FD0DC00FB607FCF7CF8C9185FF3B
:10054000F2CF808185FFEDCFCE010E941C02E9CF62
:10055000DF91CF910895FC0101900020E9F73197D8
:10056000AF01481B590BBC0189EC91E00C946D0163
:10057000009711F00C94AB0290E080E008951F9278
:100580000F920FB60F9211242F933F938F939F9347
:10059000AF93BF938091C1019091C201A091C3011B
:1005A000B091C4013091C00123E0230F2D3758F5DD
:1005B0000196A11DB11D2093C0018093C1019093AC
:1005C000C201A093C301B093C4018091C501909171
:1005D000C601A091C701B091C8010196A11DB11D2E
:1005E0008093C5019093C601A093C701B093C80141
:1005F000BF91AF919F918F913F912F910F900FBE1F
:100600000F901F90189526E8230F0296A11DB11D8B
:10061000D2CF1F920F920FB60F9211242F933F93B8
:100620004F935F936F937F938F939F93AF93BF93FA
:10063000EF93FF9389EC91E00E941C02FF91EF91F0
:10064000BF91AF919F918F917F916F915F914F91EA
:100650003F912F910F900FBE0F901F9018951F92F2
:100660000F920FB60F9211242F938F939F93EF93B6
:10067000FF93E091D901F091DA018081E091DF01EF
:10068000F091E00182FD1BC090818091E2018F5FBB
:100690008F732091E301821741F0E091E201F0E0D5
:1006A000E753FE4F958F8093E201FF91EF919F9169
:1006B0008F912F910F900FBE0F901F9018958081F2
:1006C000F4CFCF93DF93CDB7DEB7A3970FB6F894EF
:1006D000DEBF0FBECDBF789484B5826084BD84B583
:1006E000816084BD85B5826085BD85B5816085BD2D
:1006F00080916E00816080936E00109281008091E5
:10070000810082608093810080918100816080936C
:100710008100809180008160809380008091B10091
:1007200084608093B1008091B00081608093B000BC
:1007300080917A00846080937A0080917A00826050
:1007400080937A0080917A00816080937A00809112
:100750007A00806880937A001092C1006AE1E62EE8
:1007600061E0F62E02E211E0F80180810E5F1F4F7A
:1007700062E00E940C01F701D080F2E0EF0EF11C64
:1007800061E08D2D0E940C0160E08D2D0E94DE0045
:1007900021E00A32120741F761E087E00E940C0174
:1007A00060E087E00E94DE0060E082E10E940C01D0
:1007B000E091D901F091DA0182E08083E091D501E6
:1007C000F091D6011082E091D701F091D80180E13B
:1007D00080831092E101E091DD01F091DE0186E07D
:1007E0008083E091DB01F091DC0180818061808376
:1007F000E091DB01F091DC01808188608083E091F1
:10080000DB01F091DC01808180688083E091DB0175
:10081000F091DC0180818F7D80838EE391E00E94E6
:10082000AB0285E591E00E94AB0282E10E94B50037
:100830004C0180EB91E09BA38AA34AE1C42E41E0E6
:10084000D42E5C0152E2E52E51E0F52EF7018081B5
:10085000F2E0EF0EF11C0E94B500F50141905190BD
:10086000619071905F01892B09F0C9C0CF01049795
:100870001C0145284628472861F40E944801F101DF
:10088000608371838283938361E0F60180810E949B
:10089000DE000E944801F101408051806280738037
:1008A00064197509860997096938734181059105AD
:1008B00050F060E0F60180810E94DE00F1011082BC
:1008C000118212821382F2E0CF0ED11C0E151F0589
:1008D00009F0BCCF682D87E00E94DE0088E591E03A
:1008E0000E94B80232E2C32E31E0D32EF60180819D
:1008F000F2E0CF0ED11C0E94B500019709F099C01B
:100900008AE291E00E94B802CE14DF0479F787E60C
:1009100091E00E94B8022AE1E22E21E0F22EF701D6
:100920008081F2E0EF0EF11C0E94B500019709F002
:1009300083C08AE291E00E94B80222E2E21621E03E
:10094000F20669F788E791E00E94B802F12CE12CE9
:10095000EAA1FBA12191319141915191FBA3EAA31D
:1009600019A26E01F1E2CF0ED11CCA01B9012AE031
:1009700030E040E050E00E944C05605DF60162937B
:100980006F01211531054105510579F7309719F0AF
:10099000CF010E94AB02F3E0EF16F10421F08EE8E4
:1009A00091E00E94B8022FEFE21AF20A84E0E81602
:1009B000F10471F681E991E00E94B80295E3E92E15
:1009C00091E0F92E8A94892821F08AE3E82E81E0CB
:1009D000F82EC7010E94B8028EE991E00E94B80289
:1009E000C7010E94B80285E591E00E94AB020E9417
:1009F000D701882309F419CF0E94E10116CF4114D1
:100A000051046104710409F45ECF0E944801641925
:100A1000750986099709643C79408105910508F4B8
:100A200052CF60E0F60180810E94DE00F50134972C
:100A300046CF80E391E066CF80E391E07CCFE9ECA4
:100A4000F1E01382128288EE93E0A0E0B0E08483AC
:100A50009583A683B7838CE091E09183808385ECB6
:100A600090E09587848784EC90E09787868780EC78
:100A700090E0918B808B81EC90E0938B828B82EC69
:100A800090E0958B848B86EC90E0978B868B118E13
:100A9000128E138E148E0895A1E21A2EAA1BBB1B70
:100AA000FD010DC0AA1FBB1FEE1FFF1FA217B3073A
:100AB000E407F50720F0A21BB30BE40BF50B661F50
:100AC000771F881F991F1A9469F760957095809514
:100AD00090959B01AC01BD01CF010895EE0FFF1F62
:0C0AE0000590F491E02D0994F894FFCFEC
:100AEC000100010001000100000000003E026D0148
:100AFC009A018B02CB01A901BD0103000400050082
:100B0C0006000E000F001000110048494748200055
:100B1C004C4F57200048494748004C4F57004E6FE8
:100B2C00726D616C206D6F646520616374697661B0
:100B3C007465642E000D0A0048616C6C2053696763
:100B4C006E616C733A2000207C20436F696C2053DB
:100B5C0074617465733A2000207C20436F696C20AB
:100B6C0053746172742054696D65733A20002C20A3
:100B7C0000207C204947542050696E3A2000207C8C
:0E0B8C0020494754205369676E616C3A20007F
:00000001FF
