:100000000C9462000C948A000C948A000C948A0070
:100010000C948A000C948A000C948A000C948A0038
:100020000C948A000C948A000C948A000C948A0028
:100030000C948A000C948A000C948A000C948A0018
:100040000C94BF020C948A000C942F030C940903A7
:100050000C948A000C948A000C948A000C948A00F8
:100060000C948A000C948A000000000024002700F1
:100070002A0000000000250028002B0000000000DE
:1000800023002600290004040404040404040202DA
:100090000202020203030303030301020408102007
:1000A0004080010204081020010204081020000012
:1000B0000008000201000003040700000000000027
:1000C00000001E0511241FBECFEFD8E0DEBFCDBF5C
:1000D00011E0A0E0B1E0EAEEFAE002C005900D9276
:1000E000A839B107D9F722E0A8E9B1E001C01D9213
:1000F000A035B207E1F710E0C2E6D0E004C02197D6
:10010000FE010E946D05C136D107C9F70E94610347
:100110000C9473050C940000833081F028F4813036
:1001200099F08230A9F008958730A9F08830C9F09D
:100130008430B1F4809180008F7D03C08091800075
:100140008F7780938000089584B58F7784BD08955C
:1001500084B58F7DFBCF8091B0008F778093B00006
:1001600008958091B0008F7DF9CFCF93DF93282F32
:1001700030E0F901E255FF4F8491F901E656FF4F57
:10018000D491F901EA57FF4FC491CC23A1F081111A
:100190000E948C00EC2FF0E0EE0FFF1FE458FF4FA1
:1001A000A591B491EC91ED2381E090E009F480E019
:1001B000DF91CF91089580E090E0FACF1F93CF9325
:1001C000DF93282F30E0F901E255FF4F8491F901C8
:1001D000E656FF4FD491F901EA57FF4FC491CC2363
:1001E000A9F0162F81110E948C00EC2FF0E0EE0F89
:1001F000FF1FEE58FF4FA591B4918FB7F894EC9183
:10020000111108C0D095DE23DC938FBFDF91CF9111
:100210001F910895DE2BF8CFCF93DF9390E0FC0180
:10022000E656FF4F24918A579F4FFC018491882303
:10023000C9F090E0880F991FFC01E859FF4FA59184
:10024000B491FC01EE58FF4FC591D49161110DC0DE
:100250009FB7F8948C91209582238C9388812823D2
:1002600028839FBFDF91CF910895623051F49FB7EB
:10027000F8943C91822F809583238C93E8812E2BD8
:10028000EFCF8FB7F894EC912E2B2C938FBFEACF42
:100290003FB7F8948091AF019091B001A091B10166
:1002A000B091B20126B5A89B05C02F3F19F0019669
:1002B000A11DB11D3FBFBA2FA92F982F8827BC01C0
:1002C000CD01620F711D811D911D42E0660F771FE8
:1002D000881F991F4A95D1F70895AF92BF92CF9288
:1002E000DF92EF92FF920F931F93CF93DF936C01F6
:1002F0007B018B01040F151FEB015E01AE18BF08D7
:10030000C017D10759F06991D601ED91FC91019088
:10031000F081E02DC6010995892B79F7C501DF91A0
:10032000CF911F910F91FF90EF90DF90CF90BF90F2
:10033000AF900895FC01538D448D252F30E0842F1C
:1003400090E0821B930B541710F0CF9608950197FD
:100350000895FC01918D828D981761F0A28DAE0FEA
:10036000BF2FB11D5D968C91928D9F5F9F73928F71
:1003700090E008958FEF9FEF0895FC01918D828D9D
:10038000981731F0828DE80FF11D858D90E008956A
:100390008FEF9FEF0895FC01918D228D892F90E0C2
:1003A000805C9F4F821B91098F739927089583EB7F
:1003B00091E00E94CB0121E0892B09F420E0822FFB
:1003C0000895CF93DF93C1E0D0E083EB91E00E94EA
:1003D000CB01892B41F183EB91E00E94A901E82F29
:1003E000883679F4D0939901C09398018FEC8E0FE1
:1003F000843070F4EE0FFF0BE256FF4F1182108233
:10040000E4CF8C3699F71092990110929801EECFB3
:100410008FE88E0F8430C8F6EE0FFF0BE25EFF4FC1
:10042000D183C083D2CFDF91CF9108950E94D701AD
:1004300081110C94E1010895FC01A48DA80FB92F3E
:10044000B11DA35ABF4F2C91848D90E001968F73FC
:100450009927848FA689B7892C93A089B1898C911B
:10046000837080648C93938D848D981306C002886A
:10047000F389E02D80818F7D80830895EF92FF9234
:100480000F931F93CF93DF93EC0181E0888F9B8DB7
:100490008C8D98131AC0E889F989808185FF15C071
:1004A0009FB7F894EE89FF896083E889F989808194
:1004B0008370806480839FBF81E090E0DF91CF9163
:1004C0001F910F91FF90EF900895F62E0B8D10E085
:1004D0000F5F1F4F0F731127E02E8C8D8E110CC0F4
:1004E0000FB607FCFACFE889F989808185FFF5CF3F
:1004F000CE010E941C02F1CFEB8DEC0FFD2FF11D00
:10050000E35AFF4FF0829FB7F8940B8FEA89FB897B
:1005100080818062CFCFCF93DF93EC01888D8823D9
:10052000B9F0AA89BB89E889F9898C9185FD03C056
:10053000808186FD0DC00FB607FCF7CF8C9185FF3B
:10054000F2CF808185FFEDCFCE010E941C02E9CF62
:10055000DF91CF910895FC0101900020E9F73197D8
:10056000AF01481B590BBC0183EB91E00C946D016A
:10057000009711F00C94AB0290E080E008951F9278
:100580000F920FB60F9211242F933F938F939F9347
:10059000AF93BF938091AB019091AC01A091AD015D
:1005A000B091AE013091AA0123E0230F2D3758F509
:1005B0000196A11DB11D2093AA018093AB019093D8
:1005C000AC01A093AD01B093AE018091AF019091C9
:1005D000B001A091B101B091B2010196A11DB11D70
:1005E0008093AF019093B001A093B101B093B20199
:1005F000BF91AF919F918F913F912F910F900FBE1F
:100600000F901F90189526E8230F0296A11DB11D8B
:10061000D2CF1F920F920FB60F9211242F933F93B8
:100620004F935F936F937F938F939F93AF93BF93FA
:10063000EF93FF9383EB91E00E941C02FF91EF91F7
:10064000BF91AF919F918F917F916F915F914F91EA
:100650003F912F910F900FBE0F901F9018951F92F2
:100660000F920FB60F9211242F938F939F93EF93B6
:10067000FF93E091C301F091C4018081E091C90131
:10068000F091CA0182FD1BC090818091CC018F5FE7
:100690008F732091CD01821741F0E091CC01F0E001
:1006A000ED54FE4F958F8093CC01FF91EF919F9178
:1006B0008F912F910F900FBE0F901F9018958081F2
:1006C000F4CFCF93DF93CDB7DEB7A3970FB6F894EF
:1006D000DEBF0FBECDBF789484B5826084BD84B583
:1006E000816084BD85B5826085BD85B5816085BD2D
:1006F00080916E00816080936E00109281008091E5
:10070000810082608093810080918100816080936C
:100710008100809180008160809380008091B10091
:1007200084608093B1008091B00081608093B000BC
:1007300080917A00846080937A0080917A00826050
:1007400080937A0080917A00816080937A00809112
:100750007A00806880937A001092C1000AE111E06B
:1007600042E2C42E41E0D42EF6018081F2E0CF0EA9
:10077000D11C62E00E940C01F801F0800E5F1F4F57
:1007800061E08F2D0E940C0160E08F2D0E94DE0041
:10079000FAE2CF16F1E0DF0639F761E087E00E9468
:1007A0000C0160E087E00E94DE0060E082E10E94D0
:1007B0000C01E091C301F091C40182E08083E091DB
:1007C000BF01F091C0011082E091C101F091C2011E
:1007D00080E180831092CB01E091C701F091C801C4
:1007E00086E08083E091C501F091C601808180613F
:1007F0008083E091C501F091C6018081886080838B
:10080000E091C501F091C601808180688083E0910C
:10081000C501F091C60180818F7D808384E391E0E2
:100820000E94AB028BE491E00E94AB023AE0432EBF
:10083000512C612C712C82E10E94B5009BA38AA3EC
:100840008AE9282E81E0382E81019AE1E92E91E093
:10085000F92E22E2A22E21E0B22EF5018081F2E0F3
:10086000AF0EB11C0E94B500892B51F5F8018081B3
:100870009181A281B3812AA13BA12130310559F593
:10088000892B8A2B8B2B61F40E944801F80160832D
:1008900071838283938361E0F70180810E94DE008F
:1008A0000E944801F8012081318142815381621BFD
:1008B000730B840B950B693873418105910578F0B2
:1008C00060E0F70180810E94DE00F8011082118251
:1008D0001282138204C0892B8A2B8B2B89F7F2E0BA
:1008E000EF0EF11C0C5F1F4FCA14DB0409F0B5CFEB
:1008F0006AA187E00E94DE008FB7F8944091AB01B7
:100900005091AC016091AD017091AE018FBF8EE44A
:1009100091E00E94B80202E211E0F80180810E5FCE
:100920001F4F0E94B500019709F082C08AE291E052
:100930000E94B8020A151B0581F78DE591E00E941F
:10094000B8020AE111E0F80180810E5F1F4F0E949A
:10095000B500019709F06FC08AE291E00E94B802E9
:10096000F1E002321F0779F78EE691E00E94B802AB
:1009700010E000E0F10181909190A190B1901F01F1
:100980008FE791E081149104A104B10439F10E9430
:100990004801681979098A099B0928EE33E040E08B
:1009A00050E00E944B0519A27E01F1E2EF0EF11C0E
:1009B000CA01B901A30192010E944B05605DF701D4
:1009C00062937F01211531054105510589F7309763
:1009D00019F0CF010E94AB0280E891E00E94B802BA
:1009E0000330110521F084E891E00E94B8020F5F06
:1009F0001F4F0430110509F0BDCF87E891E00E9438
:100A0000B8022AA13BA180E391E02130310511F029
:100A100082E391E00E94B8028BE491E00E94AB0275
:100A20000E94D701882309F406CF0E94E10103CF79
:100A30008DE291E07DCF8DE291E090CFE3EBF1E0AC
:100A40001382128288EE93E0A0E0B0E08483958365
:100A5000A683B7838CE091E09183808385EC90E05E
:100A60009587848784EC90E09787868780EC90E078
:100A7000918B808B81EC90E0938B828B82EC90E069
:100A8000958B848B86EC90E0978B868B118E128EE3
:100A9000138E148E0895A1E21A2EAA1BBB1BFD0112
:100AA0000DC0AA1FBB1FEE1FFF1FA217B307E4074D
:100AB000F50720F0A21BB30BE40BF50B661F771FA5
:100AC000881F991F1A9469F7609570958095909585
:100AD0009B01AC01BD01CF010895EE0FFF1F0590F2
:0A0AE000F491E02D0994F894FFCF83
:100AEA000100010001000100000000003E026D014A
:100AFA009A018B02CB01A901BD0103000400050084
:100B0A0006000E000F0010001100312000302000F6
:100B1A00310030004E6F726D616C206D6F6465201C
:100B2A006163746976617465642E000D0A00486118
:100B3A006C6C205369676E616C733A2000207C20CC
:100B4A00436F696C205374617465733A2000207C8A
:100B5A00204477656C6C2054696D65733A200030C7
:100B6A006D7320002C2000207C20494754205369B3
:080B7A00676E616C3A20000077
:00000001FF
