:100000000C9462000C948A000C948A000C948A0070
:100010000C948A000C948A000C948A000C948A0038
:100020000C948A000C948A000C948A000C948A0028
:100030000C948A000C948A000C948A000C948A0018
:100040000C94AD020C948A000C941D030C94F702DE
:100050000C948A000C948A000C948A000C948A00F8
:100060000C948A000C948A000000000024002700F1
:100070002A0000000000250028002B0000000000DE
:1000800023002600290004040404040404040202DA
:100090000202020203030303030301020408102007
:1000A0004080010204081020010204081020000012
:1000B0000008000201000003040700000000000027
:1000C00000006C0411241FBECFEFD8E0DEBFCDBF0F
:1000D00011E0A0E0B1E0E2E4F9E002C005900D9289
:1000E000A836B107D9F722E0A8E6B1E001C01D9219
:1000F000A032B207E1F710E0C2E6D0E004C02197D9
:10010000FE010E949904C136D107C9F70E944F032E
:100110000C949F040C940000833081F028F481300B
:1001200099F08230A9F008958730A9F08830C9F09D
:100130008430B1F4809180008F7D03C08091800075
:100140008F7780938000089584B58F7784BD08955C
:1001500084B58F7DFBCF8091B0008F778093B00006
:1001600008958091B0008F7DF9CFCF93DF93282F32
:1001700030E0F901E255FF4F8491F901E656FF4F57
:10018000D491F901EA57FF4FC491CC23A1F081111A
:100190000E948C00EC2FF0E0EE0FFF1FE458FF4FA1
:1001A000A591B491EC91ED2381E090E009F480E019
:1001B000DF91CF91089580E090E0FACF1F93CF9325
:1001C000DF93282F30E0F901E255FF4F8491F901C8
:1001D000E656FF4FD491F901EA57FF4FC491CC2363
:1001E000A9F0162F81110E948C00EC2FF0E0EE0F89
:1001F000FF1FEE58FF4FA591B4918FB7F894EC9183
:10020000111108C0D095DE23DC938FBFDF91CF9111
:100210001F910895DE2BF8CFCF93DF9390E0FC0180
:10022000E656FF4F24918A579F4FFC018491882303
:10023000D1F090E0880F991FFC01E859FF4FA5917C
:10024000B491FC01EE58FF4FC591D49161110EC0DD
:100250009FB7F8948C91E22FE0958E238C932881A0
:10026000E223E8839FBFDF91CF9108958FB7F89481
:10027000EC91E22BEC938FBFF6CF3FB7F8948091CF
:100280007F0190918001A0918101B091820126B5FA
:10029000A89B05C02F3F19F00196A11DB11D3FBFBE
:1002A000BA2FA92F982F8827BC01CD01620F711D8D
:1002B000811D911D42E0660F771F881F991F4A9587
:1002C000D1F70895AF92BF92CF92DF92EF92FF9253
:1002D0000F931F93CF93DF936C017B018B01040F6E
:1002E000151FEB015E01AE18BF08C017D10759F00A
:1002F0006991D601ED91FC910190F081E02DC6014C
:100300000995892B79F7C501DF91CF911F910F9145
:10031000FF90EF90DF90CF90BF90AF900895FC01D9
:10032000538D448D252F30E0842F90E0821B930B5A
:10033000541710F0CF96089501970895FC01918D00
:10034000828D981761F0A28DAE0FBF2FB11D5D9603
:100350008C91928D9F5F9F73928F90E008958FEFA5
:100360009FEF0895FC01918D828D981731F0828D59
:10037000E80FF11D858D90E008958FEF9FEF0895B0
:10038000FC01918D228D892F90E0805C9F4F821B14
:1003900091098F739927089583E891E00E94C00125
:1003A00021E0892B09F420E0822F0895CF93DF9379
:1003B000C1E0D0E083E891E00E94C001892B41F1C7
:1003C00083E891E00E949E01E82F883679F4D0936B
:1003D0006901C09368018FEC8E0F843070F4EE0FCA
:1003E000FF0BE256FF4F11821082E4CF8C3699F753
:1003F0001092690110926801EECF8FE88E0F843061
:10040000C8F6EE0FFF0BE25EFF4FD183C083D2CF61
:10041000DF91CF9108950E94CC0181110C94D601F7
:100420000895FC01A48DA80FB92FB11DA35ABF4F89
:100430002C91848D90E001968F739927848FA689E3
:10044000B7892C93A089B1898C91837080648C9337
:10045000938D848D981306C00288F389E02D8081E6
:100460008F7D80830895EF92FF920F931F93CF9318
:10047000DF93EC0181E0888F9B8D8C8D98131AC0DF
:10048000E889F989808185FF15C09FB7F894EE89C6
:10049000FF896083E889F989808183708064808323
:1004A0009FBF81E090E0DF91CF911F910F91FF906E
:1004B000EF900895F62E0B8D10E00F5F1F4F0F7316
:1004C0001127E02E8C8D8E110CC00FB607FCFACFD1
:1004D000E889F989808185FFF5CFCE010E9411025C
:1004E000F1CFEB8DEC0FFD2FF11DE35AFF4FF082A2
:1004F0009FB7F8940B8FEA89FB8980818062CFCF08
:10050000CF93DF93EC01888D8823B9F0AA89BB894A
:10051000E889F9898C9185FD03C0808186FD0DC035
:100520000FB607FCF7CF8C9185FFF2CF808185FF56
:10053000EDCFCE010E941102E9CFDF91CF91089556
:10054000FC0101900020E9F73197AF01481B590BDE
:10055000BC0183E891E00C9462011F920F920FB6E8
:100560000F9211242F933F938F939F93AF93BF9339
:1005700080917B0190917C01A0917D01B0917E01E1
:1005800030917A0123E0230F2D3758F50196A11DF4
:10059000B11D20937A0180937B0190937C01A093FD
:1005A0007D01B0937E0180917F0190918001A091A7
:1005B0008101B09182010196A11DB11D80937F013F
:1005C00090938001A0938101B0938201BF91AF917C
:1005D0009F918F913F912F910F900FBE0F901F9081
:1005E000189526E8230F0296A11DB11DD2CF1F92A8
:1005F0000F920FB60F9211242F933F934F935F9357
:100600006F937F938F939F93AF93BF93EF93FF93DA
:1006100083E891E00E941102FF91EF91BF91AF91A9
:100620009F918F917F916F915F914F913F912F910A
:100630000F900FBE0F901F9018951F920F920FB63C
:100640000F9211242F938F939F93EF93FF93E09139
:100650009301F09194018081E0919901F0919A01C8
:1006600082FD1BC0908180919C018F5F8F732091D0
:100670009D01821741F0E0919C01F0E0ED57FE4FA3
:10068000958F80939C01FF91EF919F918F912F9176
:100690000F900FBE0F901F9018958081F4CF789423
:1006A00084B5826084BD84B5816084BD85B5826077
:1006B00085BD85B5816085BD80916E008160809328
:1006C0006E00109281008091810082608093810091
:1006D00080918100816080938100809180008160A1
:1006E000809380008091B10084608093B1008091FC
:1006F000B00081608093B00080917A008460809324
:100700007A0080917A00826080937A0080917A00EA
:10071000816080937A0080917A00806880937A006B
:100720001092C1002AE2C22E21E0D22E0AE111E08D
:10073000C2E2D1E08881229660E00E940C01F801BB
:10074000F0800E5F1F4F61E08F2D0E940C0160E072
:100750008F2D0E94DE00CC16DD0661F761E087E098
:100760000E940C0160E087E00E94DE0060E082E110
:100770000E940C01E0919301F091940182E080834A
:10078000E0918F01F09190011082E0919101F09140
:10079000920180E1808310929B01E0919701F0919A
:1007A000980186E08083E0919501F0919601808127
:1007B00080618083E0919501F0919601808188604D
:1007C0008083E0919501F09196018081806880831B
:1007D000E0919501F091960180818F7D80838AE27E
:1007E00091E00E94A00284E691E00E94A00282E1D2
:1007F0000E94B500982E8AE6C82E81E0D82E0AE124
:1008000011E092E2E92E91E0F92EF7018081F2E009
:10081000EF0EF11C0E94B500F601419051906190DD
:1008200071906F01892B09F03FC0CF0104975C01E3
:1008300045284628472861F40E943D01F501608360
:1008400071838283938361E0F80180810E94DE00DE
:100850000E943D01F50140805180628073806419DF
:10086000750986099709693873418105910550F02A
:1008700060E0F80180810E94DE00F50110821182A3
:10088000128213820E5F1F4FEC16FD0609F0BDCFDA
:10089000692D87E00E94DE000E94CC01882309F4C4
:1008A000A6CF0E94D601A3CF411451046104710464
:1008B00049F30E943D016419750986099709643C52
:1008C000794081059105F0F260E0F80180810E9495
:1008D000DE00F6013497D2CFE3E8F1E01382128212
:1008E00088EE93E0A0E0B0E084839583A683B7838D
:1008F0008CE091E09183808385EC90E095878487FC
:1009000084EC90E09787868780EC90E0918B808BD9
:1009100081EC90E0938B828B82EC90E0958B848BC2
:1009200086EC90E0978B868B118E128E138E148E30
:100930000895EE0FFF1F0590F491E02D0994F894AF
:02094000FFCFE7
:100942000100010001000100000000003302620109
:100952008F018002C0019E01B20103000400050064
:1009620006000E000F001000110053696D756C61D6
:10097200746F7220737461727465642E205573658E
:100982002053657269616C204D6F6E69746F7220BD
:10099200746F20636F6E74726F6C207369676E611F
:0809A2006C732E000D0A000029
:00000001FF
